{
  "_format": "hh-sol-artifact-1",
  "contractName": "EventAction",
  "sourceName": "contracts/Libraries/EventAction.sol",
  "abi": [
    {
      "inputs": [],
      "name": "AlreadyRegistered",
      "type": "error"
    },
    {
      "inputs": [],
      "name": "EventIsCancelled",
      "type": "error"
    },
    {
      "inputs": [],
      "name": "EventIsClosed",
      "type": "error"
    },
    {
      "inputs": [],
      "name": "EventRegistrationClosed",
      "type": "error"
    },
    {
      "inputs": [],
      "name": "InValidNFTAddress",
      "type": "error"
    },
    {
      "inputs": [],
      "name": "InvalidDescriptionName",
      "type": "error"
    },
    {
      "inputs": [],
      "name": "InvalidEventName",
      "type": "error"
    },
    {
      "inputs": [],
      "name": "InvalidStartDate",
      "type": "error"
    },
    {
      "inputs": [],
      "name": "InvalidVenueName",
      "type": "error"
    },
    {
      "inputs": [],
      "name": "NFTAlreadyUsed",
      "type": "error"
    },
    {
      "inputs": [],
      "name": "NotAValidEventId",
      "type": "error"
    },
    {
      "inputs": [],
      "name": "NotRegisteredForEvent",
      "type": "error"
    },
    {
      "inputs": [],
      "name": "NotTheEventManager",
      "type": "error"
    },
    {
      "inputs": [],
      "name": "YouDontHaveEventNFT",
      "type": "error"
    },
    {
      "inputs": [],
      "name": "ZeroAddressDetected",
      "type": "error"
    },
    {
      "inputs": [],
      "name": "ZeroMaxRegistration",
      "type": "error"
    },
    {
      "inputs": [
        {
          "internalType": "address",
          "name": "_NFTContractAddress",
          "type": "address"
        },
        {
          "internalType": "address",
          "name": "user",
          "type": "address"
        },
        {
          "internalType": "uint256",
          "name": "tokenId",
          "type": "uint256"
        }
      ],
      "name": "checkForNft",
      "outputs": [
        {
          "internalType": "bool",
          "name": "",
          "type": "bool"
        }
      ],
      "stateMutability": "view",
      "type": "function"
    }
  ],
  "bytecode": "0x611f1c610053600b82828239805160001a607314610046577f4e487b7100000000000000000000000000000000000000000000000000000000600052600060045260246000fd5b30600052607381538281f3fe73000000000000000000000000000000000000000030146080604052600436106100615760003560e01c80631dbbeb771461006657806349a19039146100a35780635a1a562f146100d35780639666ac4314610110578063e8e3b37d14610139575b600080fd5b81801561007257600080fd5b5061008d6004803603810190610088919061148f565b610169565b60405161009a919061193c565b60405180910390f35b6100bd60048036038101906100b8919061195e565b6108a6565b6040516100ca9190611a0d565b60405180910390f35b8180156100df57600080fd5b506100fa60048036038101906100f59190611a2f565b6109e0565b6040516101079190611ab1565b60405180910390f35b81801561011c57600080fd5b5061013760048036038101906101329190611acc565b610be0565b005b610153600480360381019061014e9190611b1f565b61106a565b6040516101609190611b81565b60405180910390f35b61017161119c565b600073ffffffffffffffffffffffffffffffffffffffff163373ffffffffffffffffffffffffffffffffffffffff16036101d7576040517f510fbaea00000000000000000000000000000000000000000000000000000000815260040160405180910390fd5b600073ffffffffffffffffffffffffffffffffffffffff168873ffffffffffffffffffffffffffffffffffffffff160361023d576040517fb714a11300000000000000000000000000000000000000000000000000000000815260040160405180910390fd5b6102468761111d565b1561027d576040517feea382db00000000000000000000000000000000000000000000000000000000815260040160405180910390fd5b6102868661111d565b156102bd576040517fdfb4734100000000000000000000000000000000000000000000000000000000815260040160405180910390fd5b6102c68561111d565b156102fd576040517fb90389dc00000000000000000000000000000000000000000000000000000000815260040160405180910390fd5b828410610336576040517f0bf784c700000000000000000000000000000000000000000000000000000000815260040160405180910390fd5b60008203610370576040517f96eda10800000000000000000000000000000000000000000000000000000000815260040160405180910390fd5b60008a60000160008b81526020019081526020016000209050898160000181905550878160010190816103a39190611da8565b50868160020190816103b59190611da8565b50858160030190816103c79190611da8565b50338160040160006101000a81548173ffffffffffffffffffffffffffffffffffffffff021916908373ffffffffffffffffffffffffffffffffffffffff160217905550848160050181905550838160060181905550428160070181905550888160090160026101000a81548173ffffffffffffffffffffffffffffffffffffffff021916908373ffffffffffffffffffffffffffffffffffffffff16021790555082816008018190555080604051806101c00160405290816000820154815260200160018201805461049990611bcb565b80601f01602080910402602001604051908101604052809291908181526020018280546104c590611bcb565b80156105125780601f106104e757610100808354040283529160200191610512565b820191906000526020600020905b8154815290600101906020018083116104f557829003601f168201915b5050505050815260200160028201805461052b90611bcb565b80601f016020809104026020016040519081016040528092919081815260200182805461055790611bcb565b80156105a45780601f10610579576101008083540402835291602001916105a4565b820191906000526020600020905b81548152906001019060200180831161058757829003601f168201915b505050505081526020016003820180546105bd90611bcb565b80601f01602080910402602001604051908101604052809291908181526020018280546105e990611bcb565b80156106365780601f1061060b57610100808354040283529160200191610636565b820191906000526020600020905b81548152906001019060200180831161061957829003601f168201915b505050505081526020016004820160009054906101000a900473ffffffffffffffffffffffffffffffffffffffff1673ffffffffffffffffffffffffffffffffffffffff1673ffffffffffffffffffffffffffffffffffffffff168152602001600582015481526020016006820154815260200160078201548152602001600882015481526020016009820160009054906101000a900460ff161515151581526020016009820160019054906101000a900460ff161515151581526020016009820160029054906101000a900473ffffffffffffffffffffffffffffffffffffffff1673ffffffffffffffffffffffffffffffffffffffff1673ffffffffffffffffffffffffffffffffffffffff168152602001600a82018054806020026020016040519081016040528092919081815260200182805480156107ce57602002820191906000526020600020905b8160009054906101000a900473ffffffffffffffffffffffffffffffffffffffff1673ffffffffffffffffffffffffffffffffffffffff1681526020019060010190808311610784575b50505050508152602001600b8201805480602002602001604051908101604052809291908181526020016000905b8282101561088e57838290600052602060002090600202016040518060400160405290816000820160009054906101000a900473ffffffffffffffffffffffffffffffffffffffff1673ffffffffffffffffffffffffffffffffffffffff1673ffffffffffffffffffffffffffffffffffffffff168152602001600182015481525050815260200190600101906107fc565b50505050815250509150509998505050505050505050565b60606108b2838361112a565b6108e8576040517f799e2f2e00000000000000000000000000000000000000000000000000000000815260040160405180910390fd5b600183600001600084815260200190815260200160002060000154101561093b576040517fcc475d4200000000000000000000000000000000000000000000000000000000815260040160405180910390fd5b826000016000838152602001908152602001600020600a018054806020026020016040519081016040528092919081815260200182805480156109d357602002820191906000526020600020905b8160009054906101000a900473ffffffffffffffffffffffffffffffffffffffff1673ffffffffffffffffffffffffffffffffffffffff1681526020019060010190808311610989575b5050505050905092915050565b6109e861123b565b6109f2848461112a565b610a28576040517f799e2f2e00000000000000000000000000000000000000000000000000000000815260040160405180910390fd5b6001846000016000858152602001908152602001600020600001541015610a7b576040517fcc475d4200000000000000000000000000000000000000000000000000000000815260040160405180910390fd5b8360010160008373ffffffffffffffffffffffffffffffffffffffff1673ffffffffffffffffffffffffffffffffffffffff168152602001908152602001600020600084815260200190815260200160002060009054906101000a900460ff16610b11576040517f1f84fae900000000000000000000000000000000000000000000000000000000815260040160405180910390fd5b600060405180604001604052808473ffffffffffffffffffffffffffffffffffffffff168152602001428152509050846000016000858152602001908152602001600020600b0181908060018154018082558091505060019003906000526020600020906002020160009091909190915060008201518160000160006101000a81548173ffffffffffffffffffffffffffffffffffffffff021916908373ffffffffffffffffffffffffffffffffffffffff160217905550602082015181600101555050809150509392505050565b826000016000838152602001908152602001600020600a01805490508360000160008481526020019081526020016000206008015403610c4c576040517fa95a57de00000000000000000000000000000000000000000000000000000000815260040160405180910390fd5b6001836000016000848152602001908152602001600020600001541015610c9f576040517fcc475d4200000000000000000000000000000000000000000000000000000000815260040160405180910390fd5b8260010160003373ffffffffffffffffffffffffffffffffffffffff1673ffffffffffffffffffffffffffffffffffffffff168152602001908152602001600020600083815260200190815260200160002060009054906101000a900460ff1615610d36576040517f3a81d6fc00000000000000000000000000000000000000000000000000000000815260040160405180910390fd5b82600001600083815260200190815260200160002060090160009054906101000a900460ff1615610d93576040517f7f0bc30900000000000000000000000000000000000000000000000000000000815260040160405180910390fd5b82600001600083815260200190815260200160002060090160019054906101000a900460ff1615610df0576040517fd26f5d6400000000000000000000000000000000000000000000000000000000815260040160405180910390fd5b600073ffffffffffffffffffffffffffffffffffffffff16836002016000848152602001908152602001600020600083815260200190815260200160002060009054906101000a900473ffffffffffffffffffffffffffffffffffffffff1673ffffffffffffffffffffffffffffffffffffffff1614610e9c576040517fdb1bb1b300000000000000000000000000000000000000000000000000000000815260040160405180910390fd5b600083600001600084815260200190815260200160002060090160029054906101000a900473ffffffffffffffffffffffffffffffffffffffff169050610ee481338461106a565b15610f1b576040517f9209909300000000000000000000000000000000000000000000000000000000815260040160405180910390fd5b836000016000848152602001908152602001600020600a01339080600181540180825580915050600190039060005260206000200160009091909190916101000a81548173ffffffffffffffffffffffffffffffffffffffff021916908373ffffffffffffffffffffffffffffffffffffffff16021790555060018460010160003373ffffffffffffffffffffffffffffffffffffffff1673ffffffffffffffffffffffffffffffffffffffff168152602001908152602001600020600085815260200190815260200160002060006101000a81548160ff02191690831515021790555033846002016000858152602001908152602001600020600084815260200190815260200160002060006101000a81548173ffffffffffffffffffffffffffffffffffffffff021916908373ffffffffffffffffffffffffffffffffffffffff16021790555050505050565b60008273ffffffffffffffffffffffffffffffffffffffff168473ffffffffffffffffffffffffffffffffffffffff16636352211e846040518263ffffffff1660e01b81526004016110bc9190611e89565b602060405180830381865afa1580156110d9573d6000803e3d6000fd5b505050506040513d601f19601f820116820180604052508101906110fd9190611eb9565b73ffffffffffffffffffffffffffffffffffffffff161490509392505050565b6000808251149050919050565b60003373ffffffffffffffffffffffffffffffffffffffff1683600001600084815260200190815260200160002060040160009054906101000a900473ffffffffffffffffffffffffffffffffffffffff1673ffffffffffffffffffffffffffffffffffffffff161415905092915050565b604051806101c0016040528060008152602001606081526020016060815260200160608152602001600073ffffffffffffffffffffffffffffffffffffffff16815260200160008152602001600081526020016000815260200160008152602001600015158152602001600015158152602001600073ffffffffffffffffffffffffffffffffffffffff16815260200160608152602001606081525090565b6040518060400160405280600073ffffffffffffffffffffffffffffffffffffffff168152602001600081525090565b6000604051905090565b600080fd5b600080fd5b6000819050919050565b6112928161127f565b811461129d57600080fd5b50565b6000813590506112af81611289565b92915050565b6000819050919050565b6112c8816112b5565b81146112d357600080fd5b50565b6000813590506112e5816112bf565b92915050565b600073ffffffffffffffffffffffffffffffffffffffff82169050919050565b6000611316826112eb565b9050919050565b6113268161130b565b811461133157600080fd5b50565b6000813590506113438161131d565b92915050565b600080fd5b600080fd5b6000601f19601f8301169050919050565b7f4e487b7100000000000000000000000000000000000000000000000000000000600052604160045260246000fd5b61139c82611353565b810181811067ffffffffffffffff821117156113bb576113ba611364565b5b80604052505050565b60006113ce61126b565b90506113da8282611393565b919050565b600067ffffffffffffffff8211156113fa576113f9611364565b5b61140382611353565b9050602081019050919050565b82818337600083830152505050565b600061143261142d846113df565b6113c4565b90508281526020810184848401111561144e5761144d61134e565b5b611459848285611410565b509392505050565b600082601f83011261147657611475611349565b5b813561148684826020860161141f565b91505092915050565b60008060008060008060008060006101208a8c0312156114b2576114b1611275565b5b60006114c08c828d016112a0565b99505060206114d18c828d016112d6565b98505060406114e28c828d01611334565b97505060608a013567ffffffffffffffff8111156115035761150261127a565b5b61150f8c828d01611461565b96505060808a013567ffffffffffffffff8111156115305761152f61127a565b5b61153c8c828d01611461565b95505060a08a013567ffffffffffffffff81111561155d5761155c61127a565b5b6115698c828d01611461565b94505060c061157a8c828d016112d6565b93505060e061158b8c828d016112d6565b92505061010061159d8c828d016112d6565b9150509295985092959850929598565b6115b6816112b5565b82525050565b600081519050919050565b600082825260208201905092915050565b60005b838110156115f65780820151818401526020810190506115db565b60008484015250505050565b600061160d826115bc565b61161781856115c7565b93506116278185602086016115d8565b61163081611353565b840191505092915050565b6116448161130b565b82525050565b60008115159050919050565b61165f8161164a565b82525050565b600081519050919050565b600082825260208201905092915050565b6000819050602082019050919050565b600061169d838361163b565b60208301905092915050565b6000602082019050919050565b60006116c182611665565b6116cb8185611670565b93506116d683611681565b8060005b838110156117075781516116ee8882611691565b97506116f9836116a9565b9250506001810190506116da565b5085935050505092915050565b600081519050919050565b600082825260208201905092915050565b6000819050602082019050919050565b604082016000820151611756600085018261163b565b50602082015161176960208501826115ad565b50505050565b600061177b8383611740565b60408301905092915050565b6000602082019050919050565b600061179f82611714565b6117a9818561171f565b93506117b483611730565b8060005b838110156117e55781516117cc888261176f565b97506117d783611787565b9250506001810190506117b8565b5085935050505092915050565b60006101c08301600083015161180b60008601826115ad565b50602083015184820360208601526118238282611602565b9150506040830151848203604086015261183d8282611602565b915050606083015184820360608601526118578282611602565b915050608083015161186c608086018261163b565b5060a083015161187f60a08601826115ad565b5060c083015161189260c08601826115ad565b5060e08301516118a560e08601826115ad565b506101008301516118ba6101008601826115ad565b506101208301516118cf610120860182611656565b506101408301516118e4610140860182611656565b506101608301516118f961016086018261163b565b5061018083015184820361018086015261191382826116b6565b9150506101a08301518482036101a086015261192f8282611794565b9150508091505092915050565b6000602082019050818103600083015261195681846117f2565b905092915050565b6000806040838503121561197557611974611275565b5b6000611983858286016112a0565b9250506020611994858286016112d6565b9150509250929050565b600082825260208201905092915050565b60006119ba82611665565b6119c4818561199e565b93506119cf83611681565b8060005b83811015611a005781516119e78882611691565b97506119f2836116a9565b9250506001810190506119d3565b5085935050505092915050565b60006020820190508181036000830152611a2781846119af565b905092915050565b600080600060608486031215611a4857611a47611275565b5b6000611a56868287016112a0565b9350506020611a67868287016112d6565b9250506040611a7886828701611334565b9150509250925092565b604082016000820151611a98600085018261163b565b506020820151611aab60208501826115ad565b50505050565b6000604082019050611ac66000830184611a82565b92915050565b600080600060608486031215611ae557611ae4611275565b5b6000611af3868287016112a0565b9350506020611b04868287016112d6565b9250506040611b15868287016112d6565b9150509250925092565b600080600060608486031215611b3857611b37611275565b5b6000611b4686828701611334565b9350506020611b5786828701611334565b9250506040611b68868287016112d6565b9150509250925092565b611b7b8161164a565b82525050565b6000602082019050611b966000830184611b72565b92915050565b7f4e487b7100000000000000000000000000000000000000000000000000000000600052602260045260246000fd5b60006002820490506001821680611be357607f821691505b602082108103611bf657611bf5611b9c565b5b50919050565b60008190508160005260206000209050919050565b60006020601f8301049050919050565b600082821b905092915050565b600060088302611c5e7fffffffffffffffffffffffffffffffffffffffffffffffffffffffffffffffff82611c21565b611c688683611c21565b95508019841693508086168417925050509392505050565b6000819050919050565b6000611ca5611ca0611c9b846112b5565b611c80565b6112b5565b9050919050565b6000819050919050565b611cbf83611c8a565b611cd3611ccb82611cac565b848454611c2e565b825550505050565b600090565b611ce8611cdb565b611cf3818484611cb6565b505050565b5b81811015611d1757611d0c600082611ce0565b600181019050611cf9565b5050565b601f821115611d5c57611d2d81611bfc565b611d3684611c11565b81016020851015611d45578190505b611d59611d5185611c11565b830182611cf8565b50505b505050565b600082821c905092915050565b6000611d7f60001984600802611d61565b1980831691505092915050565b6000611d988383611d6e565b9150826002028217905092915050565b611db1826115bc565b67ffffffffffffffff811115611dca57611dc9611364565b5b611dd48254611bcb565b611ddf828285611d1b565b600060209050601f831160018114611e125760008415611e00578287015190505b611e0a8582611d8c565b865550611e72565b601f198416611e2086611bfc565b60005b82811015611e4857848901518255600182019150602085019450602081019050611e23565b86831015611e655784890151611e61601f891682611d6e565b8355505b6001600288020188555050505b505050505050565b611e83816112b5565b82525050565b6000602082019050611e9e6000830184611e7a565b92915050565b600081519050611eb38161131d565b92915050565b600060208284031215611ecf57611ece611275565b5b6000611edd84828501611ea4565b9150509291505056fea2646970667358221220843864523cdbb8290f080bdcce29742f88b0c7c9b45547cf9609ffe0abe2f73d64736f6c63430008180033",
  "linkReferences": {},
  "deployedLinkReferences": {}
}