{
  "_format": "hh-sol-artifact-1",
  "contractName": "NftGatedEventOrganizer",
  "sourceName": "contracts/NftGatedEventOrganizer.sol",
  "abi": [
    {
      "inputs": [],
      "stateMutability": "nonpayable",
      "type": "constructor"
    },
    {
      "inputs": [
        {
          "internalType": "uint256",
          "name": "eventId",
          "type": "uint256"
        },
        {
          "internalType": "address",
          "name": "_member",
          "type": "address"
        }
      ],
      "name": "checkInForEvent",
      "outputs": [],
      "stateMutability": "nonpayable",
      "type": "function"
    },
    {
      "inputs": [
        {
          "internalType": "address",
          "name": "_NFTTokenAddress",
          "type": "address"
        },
        {
          "internalType": "string",
          "name": "_name",
          "type": "string"
        },
        {
          "internalType": "string",
          "name": "_venue",
          "type": "string"
        },
        {
          "internalType": "string",
          "name": "_description",
          "type": "string"
        },
        {
          "internalType": "uint256",
          "name": "_startDate",
          "type": "uint256"
        },
        {
          "internalType": "uint256",
          "name": "_eventEndDate",
          "type": "uint256"
        },
        {
          "internalType": "uint256",
          "name": "_maxNumberOfRegistration",
          "type": "uint256"
        }
      ],
      "name": "createEvent",
      "outputs": [
        {
          "components": [
            {
              "internalType": "uint256",
              "name": "id",
              "type": "uint256"
            },
            {
              "internalType": "string",
              "name": "name",
              "type": "string"
            },
            {
              "internalType": "string",
              "name": "venue",
              "type": "string"
            },
            {
              "internalType": "string",
              "name": "description",
              "type": "string"
            },
            {
              "internalType": "address",
              "name": "created_by",
              "type": "address"
            },
            {
              "internalType": "uint256",
              "name": "eventStartDate",
              "type": "uint256"
            },
            {
              "internalType": "uint256",
              "name": "eventEndDate",
              "type": "uint256"
            },
            {
              "internalType": "uint256",
              "name": "created_at",
              "type": "uint256"
            },
            {
              "internalType": "uint256",
              "name": "maxNumberOfRegisteration",
              "type": "uint256"
            },
            {
              "internalType": "bool",
              "name": "isClosed",
              "type": "bool"
            },
            {
              "internalType": "bool",
              "name": "isCancelled",
              "type": "bool"
            },
            {
              "internalType": "address",
              "name": "NFTTokenAddress",
              "type": "address"
            },
            {
              "internalType": "address[]",
              "name": "attendees",
              "type": "address[]"
            },
            {
              "components": [
                {
                  "internalType": "address",
                  "name": "attendee",
                  "type": "address"
                },
                {
                  "internalType": "uint256",
                  "name": "checkInTime",
                  "type": "uint256"
                }
              ],
              "internalType": "struct EventAction.AttendantLog[]",
              "name": "attendantLog",
              "type": "tuple[]"
            }
          ],
          "internalType": "struct EventAction.Event",
          "name": "",
          "type": "tuple"
        }
      ],
      "stateMutability": "nonpayable",
      "type": "function"
    },
    {
      "inputs": [
        {
          "internalType": "uint256",
          "name": "eventId",
          "type": "uint256"
        },
        {
          "internalType": "uint256",
          "name": "tokenId",
          "type": "uint256"
        }
      ],
      "name": "registerForAnEvent",
      "outputs": [],
      "stateMutability": "nonpayable",
      "type": "function"
    },
    {
      "inputs": [],
      "name": "totalEvent",
      "outputs": [
        {
          "internalType": "uint256",
          "name": "",
          "type": "uint256"
        }
      ],
      "stateMutability": "view",
      "type": "function"
    },
    {
      "inputs": [
        {
          "internalType": "uint256",
          "name": "eventId",
          "type": "uint256"
        }
      ],
      "name": "totalRegisteredEventMembers",
      "outputs": [
        {
          "internalType": "address[]",
          "name": "",
          "type": "address[]"
        }
      ],
      "stateMutability": "view",
      "type": "function"
    }
  ],
  "bytecode": "0x608060405234801561001057600080fd5b506000600181905550611391806100286000396000f3fe608060405234801561001057600080fd5b50600436106100565760003560e01c8062a4a18e1461005b5780630296bed51461008b5780637eadfa6a146100a7578063fe10fffb146100c5578063fe8d5e61146100f5575b600080fd5b610075600480360381019061007091906105e9565b610111565b6040516100829190610a6e565b60405180910390f35b6100a560048036038101906100a09190610a90565b6101d6565b005b6100af610248565b6040516100bc9190610adf565b60405180910390f35b6100df60048036038101906100da9190610afa565b61024e565b6040516100ec9190610b96565b60405180910390f35b61010f600480360381019061010a9190610bb8565b6102d9565b005b61011961035c565b6001600081548092919061012c90610c27565b91905055506000600273__$42cdd4e3b90ce445a6f4d26d0996ffc787$__631dbbeb7790916001548c8c8c8c8c8c8c6040518a63ffffffff1660e01b815260040161017f99989796959493929190610cde565b600060405180830381865af415801561019c573d6000803e3d6000fd5b505050506040513d6000823e3d601f19601f820116820180604052508101906101c59190611205565b905080915050979650505050505050565b600273__$42cdd4e3b90ce445a6f4d26d0996ffc787$__639666ac43909184846040518463ffffffff1660e01b81526004016102149392919061124e565b60006040518083038186803b15801561022c57600080fd5b505af4158015610240573d6000803e3d6000fd5b505050505050565b60015481565b6060600273__$42cdd4e3b90ce445a6f4d26d0996ffc787$__6349a190399091846040518363ffffffff1660e01b815260040161028c929190611285565b600060405180830381865af41580156102a9573d6000803e3d6000fd5b505050506040513d6000823e3d601f19601f820116820180604052508101906102d291906112ae565b9050919050565b600273__$42cdd4e3b90ce445a6f4d26d0996ffc787$__635a1a562f909184846040518463ffffffff1660e01b8152600401610317939291906112f7565b6040805180830381865af4158015610333573d6000803e3d6000fd5b505050506040513d601f19601f82011682018060405250810190610357919061132e565b505050565b604051806101c0016040528060008152602001606081526020016060815260200160608152602001600073ffffffffffffffffffffffffffffffffffffffff16815260200160008152602001600081526020016000815260200160008152602001600015158152602001600015158152602001600073ffffffffffffffffffffffffffffffffffffffff16815260200160608152602001606081525090565b6000604051905090565b600080fd5b600080fd5b600073ffffffffffffffffffffffffffffffffffffffff82169050919050565b600061043a8261040f565b9050919050565b61044a8161042f565b811461045557600080fd5b50565b60008135905061046781610441565b92915050565b600080fd5b600080fd5b6000601f19601f8301169050919050565b7f4e487b7100000000000000000000000000000000000000000000000000000000600052604160045260246000fd5b6104c082610477565b810181811067ffffffffffffffff821117156104df576104de610488565b5b80604052505050565b60006104f26103fb565b90506104fe82826104b7565b919050565b600067ffffffffffffffff82111561051e5761051d610488565b5b61052782610477565b9050602081019050919050565b82818337600083830152505050565b600061055661055184610503565b6104e8565b90508281526020810184848401111561057257610571610472565b5b61057d848285610534565b509392505050565b600082601f83011261059a5761059961046d565b5b81356105aa848260208601610543565b91505092915050565b6000819050919050565b6105c6816105b3565b81146105d157600080fd5b50565b6000813590506105e3816105bd565b92915050565b600080600080600080600060e0888a03121561060857610607610405565b5b60006106168a828b01610458565b975050602088013567ffffffffffffffff8111156106375761063661040a565b5b6106438a828b01610585565b965050604088013567ffffffffffffffff8111156106645761066361040a565b5b6106708a828b01610585565b955050606088013567ffffffffffffffff8111156106915761069061040a565b5b61069d8a828b01610585565b94505060806106ae8a828b016105d4565b93505060a06106bf8a828b016105d4565b92505060c06106d08a828b016105d4565b91505092959891949750929550565b6106e8816105b3565b82525050565b600081519050919050565b600082825260208201905092915050565b60005b8381101561072857808201518184015260208101905061070d565b60008484015250505050565b600061073f826106ee565b61074981856106f9565b935061075981856020860161070a565b61076281610477565b840191505092915050565b6107768161042f565b82525050565b60008115159050919050565b6107918161077c565b82525050565b600081519050919050565b600082825260208201905092915050565b6000819050602082019050919050565b60006107cf838361076d565b60208301905092915050565b6000602082019050919050565b60006107f382610797565b6107fd81856107a2565b9350610808836107b3565b8060005b8381101561083957815161082088826107c3565b975061082b836107db565b92505060018101905061080c565b5085935050505092915050565b600081519050919050565b600082825260208201905092915050565b6000819050602082019050919050565b604082016000820151610888600085018261076d565b50602082015161089b60208501826106df565b50505050565b60006108ad8383610872565b60408301905092915050565b6000602082019050919050565b60006108d182610846565b6108db8185610851565b93506108e683610862565b8060005b838110156109175781516108fe88826108a1565b9750610909836108b9565b9250506001810190506108ea565b5085935050505092915050565b60006101c08301600083015161093d60008601826106df565b50602083015184820360208601526109558282610734565b9150506040830151848203604086015261096f8282610734565b915050606083015184820360608601526109898282610734565b915050608083015161099e608086018261076d565b5060a08301516109b160a08601826106df565b5060c08301516109c460c08601826106df565b5060e08301516109d760e08601826106df565b506101008301516109ec6101008601826106df565b50610120830151610a01610120860182610788565b50610140830151610a16610140860182610788565b50610160830151610a2b61016086018261076d565b50610180830151848203610180860152610a4582826107e8565b9150506101a08301518482036101a0860152610a6182826108c6565b9150508091505092915050565b60006020820190508181036000830152610a888184610924565b905092915050565b60008060408385031215610aa757610aa6610405565b5b6000610ab5858286016105d4565b9250506020610ac6858286016105d4565b9150509250929050565b610ad9816105b3565b82525050565b6000602082019050610af46000830184610ad0565b92915050565b600060208284031215610b1057610b0f610405565b5b6000610b1e848285016105d4565b91505092915050565b600082825260208201905092915050565b6000610b4382610797565b610b4d8185610b27565b9350610b58836107b3565b8060005b83811015610b89578151610b7088826107c3565b9750610b7b836107db565b925050600181019050610b5c565b5085935050505092915050565b60006020820190508181036000830152610bb08184610b38565b905092915050565b60008060408385031215610bcf57610bce610405565b5b6000610bdd858286016105d4565b9250506020610bee85828601610458565b9150509250929050565b7f4e487b7100000000000000000000000000000000000000000000000000000000600052601160045260246000fd5b6000610c32826105b3565b91507fffffffffffffffffffffffffffffffffffffffffffffffffffffffffffffffff8203610c6457610c63610bf8565b5b600182019050919050565b8082525050565b610c7f816105b3565b82525050565b610c8e8161042f565b82525050565b600082825260208201905092915050565b6000610cb0826106ee565b610cba8185610c94565b9350610cca81856020860161070a565b610cd381610477565b840191505092915050565b600061012082019050610cf4600083018c610c6f565b610d01602083018b610c76565b610d0e604083018a610c85565b8181036060830152610d208189610ca5565b90508181036080830152610d348188610ca5565b905081810360a0830152610d488187610ca5565b9050610d5760c0830186610c76565b610d6460e0830185610c76565b610d72610100830184610c76565b9a9950505050505050505050565b600080fd5b600080fd5b600081519050610d99816105bd565b92915050565b6000610db2610dad84610503565b6104e8565b905082815260208101848484011115610dce57610dcd610472565b5b610dd984828561070a565b509392505050565b600082601f830112610df657610df561046d565b5b8151610e06848260208601610d9f565b91505092915050565b600081519050610e1e81610441565b92915050565b610e2d8161077c565b8114610e3857600080fd5b50565b600081519050610e4a81610e24565b92915050565b600067ffffffffffffffff821115610e6b57610e6a610488565b5b602082029050602081019050919050565b600080fd5b6000610e94610e8f84610e50565b6104e8565b90508083825260208201905060208402830185811115610eb757610eb6610e7c565b5b835b81811015610ee05780610ecc8882610e0f565b845260208401935050602081019050610eb9565b5050509392505050565b600082601f830112610eff57610efe61046d565b5b8151610f0f848260208601610e81565b91505092915050565b600067ffffffffffffffff821115610f3357610f32610488565b5b602082029050602081019050919050565b600060408284031215610f5a57610f59610d80565b5b610f6460406104e8565b90506000610f7484828501610e0f565b6000830152506020610f8884828501610d8a565b60208301525092915050565b6000610fa7610fa284610f18565b6104e8565b90508083825260208201905060408402830185811115610fca57610fc9610e7c565b5b835b81811015610ff35780610fdf8882610f44565b845260208401935050604081019050610fcc565b5050509392505050565b600082601f8301126110125761101161046d565b5b8151611022848260208601610f94565b91505092915050565b60006101c0828403121561104257611041610d80565b5b61104d6101c06104e8565b9050600061105d84828501610d8a565b600083015250602082015167ffffffffffffffff81111561108157611080610d85565b5b61108d84828501610de1565b602083015250604082015167ffffffffffffffff8111156110b1576110b0610d85565b5b6110bd84828501610de1565b604083015250606082015167ffffffffffffffff8111156110e1576110e0610d85565b5b6110ed84828501610de1565b606083015250608061110184828501610e0f565b60808301525060a061111584828501610d8a565b60a08301525060c061112984828501610d8a565b60c08301525060e061113d84828501610d8a565b60e08301525061010061115284828501610d8a565b6101008301525061012061116884828501610e3b565b6101208301525061014061117e84828501610e3b565b6101408301525061016061119484828501610e0f565b6101608301525061018082015167ffffffffffffffff8111156111ba576111b9610d85565b5b6111c684828501610eea565b610180830152506101a082015167ffffffffffffffff8111156111ec576111eb610d85565b5b6111f884828501610ffd565b6101a08301525092915050565b60006020828403121561121b5761121a610405565b5b600082015167ffffffffffffffff8111156112395761123861040a565b5b6112458482850161102b565b91505092915050565b60006060820190506112636000830186610c6f565b6112706020830185610c76565b61127d6040830184610c76565b949350505050565b600060408201905061129a6000830185610c6f565b6112a76020830184610c76565b9392505050565b6000602082840312156112c4576112c3610405565b5b600082015167ffffffffffffffff8111156112e2576112e161040a565b5b6112ee84828501610eea565b91505092915050565b600060608201905061130c6000830186610c6f565b6113196020830185610c76565b6113266040830184610c85565b949350505050565b60006040828403121561134457611343610405565b5b600061135284828501610f44565b9150509291505056fea264697066735822122005384b7c3a515bbf02fca11a036e06fa8fce72e65bc186cd0d3d6282b69f1d4c64736f6c63430008180033",
  "linkReferences": {
    "contracts/Libraries/EventAction.sol": {
      "EventAction": [
        {
          "length": 20,
          "start": 351
        },
        {
          "length": 20,
          "start": 514
        },
        {
          "length": 20,
          "start": 636
        },
        {
          "length": 20,
          "start": 773
        }
      ]
    }
  },
  "deployedLinkReferences": {
    "contracts/Libraries/EventAction.sol": {
      "EventAction": [
        {
          "length": 20,
          "start": 311
        },
        {
          "length": 20,
          "start": 474
        },
        {
          "length": 20,
          "start": 596
        },
        {
          "length": 20,
          "start": 733
        }
      ]
    }
  }
}